{
  "contractName": "EmployeeContract",
  "abi": [
    {
      "inputs": [],
      "payable": false,
      "stateMutability": "nonpayable",
      "type": "constructor"
    },
    {
      "anonymous": false,
      "inputs": [
        {
          "indexed": false,
          "internalType": "uint256",
          "name": "id",
          "type": "uint256"
        }
      ],
      "name": "DeleteEmployee",
      "type": "event"
    },
    {
      "anonymous": false,
      "inputs": [
        {
          "indexed": false,
          "internalType": "uint256",
          "name": "id",
          "type": "uint256"
        },
        {
          "indexed": false,
          "internalType": "string",
          "name": "name",
          "type": "string"
        },
        {
          "indexed": false,
          "internalType": "int256",
          "name": "age",
          "type": "int256"
        },
        {
          "indexed": false,
          "internalType": "string",
          "name": "role",
          "type": "string"
        },
        {
          "indexed": false,
          "internalType": "int256",
          "name": "salary",
          "type": "int256"
        }
      ],
      "name": "NewEmployee",
      "type": "event"
    },
    {
      "anonymous": false,
      "inputs": [
        {
          "indexed": false,
          "internalType": "uint256",
          "name": "id",
          "type": "uint256"
        },
        {
          "indexed": false,
          "internalType": "string",
          "name": "name",
          "type": "string"
        },
        {
          "indexed": false,
          "internalType": "int256",
          "name": "age",
          "type": "int256"
        },
        {
          "indexed": false,
          "internalType": "string",
          "name": "role",
          "type": "string"
        },
        {
          "indexed": false,
          "internalType": "int256",
          "name": "salary",
          "type": "int256"
        }
      ],
      "name": "UpdatedEmployee",
      "type": "event"
    },
    {
      "constant": true,
      "inputs": [
        {
          "internalType": "uint256",
          "name": "",
          "type": "uint256"
        }
      ],
      "name": "employeeToOwner",
      "outputs": [
        {
          "internalType": "address",
          "name": "",
          "type": "address"
        }
      ],
      "payable": false,
      "stateMutability": "view",
      "type": "function"
    },
    {
      "constant": true,
      "inputs": [
        {
          "internalType": "uint256",
          "name": "",
          "type": "uint256"
        }
      ],
      "name": "employees",
      "outputs": [
        {
          "internalType": "string",
          "name": "name",
          "type": "string"
        },
        {
          "internalType": "int256",
          "name": "age",
          "type": "int256"
        },
        {
          "internalType": "string",
          "name": "role",
          "type": "string"
        },
        {
          "internalType": "int256",
          "name": "salary",
          "type": "int256"
        }
      ],
      "payable": false,
      "stateMutability": "view",
      "type": "function"
    },
    {
      "constant": true,
      "inputs": [
        {
          "internalType": "address",
          "name": "",
          "type": "address"
        }
      ],
      "name": "ownerToEmployee",
      "outputs": [
        {
          "internalType": "uint256",
          "name": "",
          "type": "uint256"
        }
      ],
      "payable": false,
      "stateMutability": "view",
      "type": "function"
    },
    {
      "constant": false,
      "inputs": [
        {
          "internalType": "string",
          "name": "name",
          "type": "string"
        },
        {
          "internalType": "int256",
          "name": "age",
          "type": "int256"
        },
        {
          "internalType": "string",
          "name": "role",
          "type": "string"
        },
        {
          "internalType": "int256",
          "name": "salary",
          "type": "int256"
        }
      ],
      "name": "createEmployee",
      "outputs": [],
      "payable": false,
      "stateMutability": "nonpayable",
      "type": "function"
    },
    {
      "constant": true,
      "inputs": [
        {
          "internalType": "uint256",
          "name": "id",
          "type": "uint256"
        }
      ],
      "name": "getEmployee",
      "outputs": [
        {
          "internalType": "string",
          "name": "",
          "type": "string"
        },
        {
          "internalType": "int256",
          "name": "",
          "type": "int256"
        },
        {
          "internalType": "string",
          "name": "",
          "type": "string"
        },
        {
          "internalType": "int256",
          "name": "",
          "type": "int256"
        }
      ],
      "payable": false,
      "stateMutability": "view",
      "type": "function"
    },
    {
      "constant": false,
      "inputs": [
        {
          "internalType": "uint256",
          "name": "id",
          "type": "uint256"
        },
        {
          "internalType": "string",
          "name": "name",
          "type": "string"
        },
        {
          "internalType": "int256",
          "name": "age",
          "type": "int256"
        },
        {
          "internalType": "string",
          "name": "role",
          "type": "string"
        },
        {
          "internalType": "int256",
          "name": "salary",
          "type": "int256"
        }
      ],
      "name": "updateEmployeeName",
      "outputs": [],
      "payable": false,
      "stateMutability": "nonpayable",
      "type": "function"
    },
    {
      "constant": false,
      "inputs": [
        {
          "internalType": "uint256",
          "name": "id",
          "type": "uint256"
        }
      ],
      "name": "deleteEmployee",
      "outputs": [],
      "payable": false,
      "stateMutability": "nonpayable",
      "type": "function"
    }
  ],
  "bytecode": "0x608060405234801561001057600080fd5b5060006001819055507359bde5bba8549503d88ebe11fe47b39989dda3a9600260006101000a81548173ffffffffffffffffffffffffffffffffffffffff021916908373ffffffffffffffffffffffffffffffffffffffff1602179055506111cc8061007d6000396000f3fe608060405234801561001057600080fd5b506004361061007d5760003560e01c80634739326b1161005b5780634739326b14610176578063bca9a5c514610297578063be840e4c146103b8578063db3a6bde1461051e5761007d565b80631cbc90c714610082578063277ca287146100b0578063408445f61461011e575b600080fd5b6100ae6004803603602081101561009857600080fd5b810190808035906020019092919050505061068e565b005b6100dc600480360360208110156100c657600080fd5b810190808035906020019092919050505061082c565b604051808273ffffffffffffffffffffffffffffffffffffffff1673ffffffffffffffffffffffffffffffffffffffff16815260200191505060405180910390f35b6101606004803603602081101561013457600080fd5b81019080803573ffffffffffffffffffffffffffffffffffffffff16906020019092919050505061085f565b6040518082815260200191505060405180910390f35b6101a26004803603602081101561018c57600080fd5b8101908080359060200190929190505050610877565b604051808060200185815260200180602001848152602001838103835287818151815260200191508051906020019080838360005b838110156101f25780820151818401526020810190506101d7565b50505050905090810190601f16801561021f5780820380516001836020036101000a031916815260200191505b50838103825285818151815260200191508051906020019080838360005b8381101561025857808201518184015260208101905061023d565b50505050905090810190601f1680156102855780820380516001836020036101000a031916815260200191505b50965050505050505060405180910390f35b6102c3600480360360208110156102ad57600080fd5b81019080803590602001909291905050506109d7565b604051808060200185815260200180602001848152602001838103835287818151815260200191508051906020019080838360005b838110156103135780820151818401526020810190506102f8565b50505050905090810190601f1680156103405780820380516001836020036101000a031916815260200191505b50838103825285818151815260200191508051906020019080838360005b8381101561037957808201518184015260208101905061035e565b50505050905090810190601f1680156103a65780820380516001836020036101000a031916815260200191505b50965050505050505060405180910390f35b61051c600480360360808110156103ce57600080fd5b81019080803590602001906401000000008111156103eb57600080fd5b8201836020820111156103fd57600080fd5b8035906020019184600183028401116401000000008311171561041f57600080fd5b91908080601f016020809104026020016040519081016040528093929190818152602001838380828437600081840152601f19601f820116905080830192505050505050509192919290803590602001909291908035906020019064010000000081111561048c57600080fd5b82018360208201111561049e57600080fd5b803590602001918460018302840111640100000000831117156104c057600080fd5b91908080601f016020809104026020016040519081016040528093929190818152602001838380828437600081840152601f19601f82011690508083019250505050505050919291929080359060200190929190505050610b7c565b005b61068c600480360360a081101561053457600080fd5b81019080803590602001909291908035906020019064010000000081111561055b57600080fd5b82018360208201111561056d57600080fd5b8035906020019184600183028401116401000000008311171561058f57600080fd5b91908080601f016020809104026020016040519081016040528093929190818152602001838380828437600081840152601f19601f82011690508083019250505050505050919291929080359060200190929190803590602001906401000000008111156105fc57600080fd5b82018360208201111561060e57600080fd5b8035906020019184600183028401116401000000008311171561063057600080fd5b91908080601f016020809104026020016040519081016040528093929190818152602001838380828437600081840152601f19601f82011690508083019250505050505050919291929080359060200190929190505050610d99565b005b3373ffffffffffffffffffffffffffffffffffffffff16600260009054906101000a900473ffffffffffffffffffffffffffffffffffffffff1673ffffffffffffffffffffffffffffffffffffffff16146106e857600080fd5b60008190505b60018054038110156107955760008060018301815260200190815260200160002060008083815260200190815260200160002060008201816000019080546001816001161561010002031660029004610748929190610fa3565b50600182015481600101556002820181600201908054600181600116156101000203166002900461077a929190610fa3565b506003820154816003015590505080806001019150506106ee565b5060008060018054038152602001908152602001600020600080820160006107bd919061102a565b60018201600090556002820160006107d5919061102a565b60038201600090555050600160008154809291906001900391905055507f3422a49654a86549351fac49c7950c9cc890b307679e73fb9407cc39fbe402ca816040518082815260200191505060405180910390a150565b60036020528060005260406000206000915054906101000a900473ffffffffffffffffffffffffffffffffffffffff1681565b60046020528060005260406000206000915090505481565b6000602052806000526040600020600091509050806000018054600181600116156101000203166002900480601f0160208091040260200160405190810160405280929190818152602001828054600181600116156101000203166002900480156109235780601f106108f857610100808354040283529160200191610923565b820191906000526020600020905b81548152906001019060200180831161090657829003601f168201915b505050505090806001015490806002018054600181600116156101000203166002900480601f0160208091040260200160405190810160405280929190818152602001828054600181600116156101000203166002900480156109c75780601f1061099c576101008083540402835291602001916109c7565b820191906000526020600020905b8154815290600101906020018083116109aa57829003601f168201915b5050505050908060030154905084565b60606000606060008060008681526020019081526020016000206000016000808781526020019081526020016000206001015460008088815260200190815260200160002060020160008089815260200190815260200160002060030154838054600181600116156101000203166002900480601f016020809104026020016040519081016040528092919081815260200182805460018160011615610100020316600290048015610aca5780601f10610a9f57610100808354040283529160200191610aca565b820191906000526020600020905b815481529060010190602001808311610aad57829003601f168201915b50505050509350818054600181600116156101000203166002900480601f016020809104026020016040519081016040528092919081815260200182805460018160011615610100020316600290048015610b665780601f10610b3b57610100808354040283529160200191610b66565b820191906000526020600020905b815481529060010190602001808311610b4957829003601f168201915b5050505050915093509350935093509193509193565b3373ffffffffffffffffffffffffffffffffffffffff16600260009054906101000a900473ffffffffffffffffffffffffffffffffffffffff1673ffffffffffffffffffffffffffffffffffffffff1614610bd657600080fd5b60405180608001604052808581526020018481526020018381526020018281525060008060015481526020019081526020016000206000820151816000019080519060200190610c27929190611072565b50602082015181600101556040820151816002019080519060200190610c4e929190611072565b50606082015181600301559050506001600081548092919060010191905055507fcf46a9c913ea4607de09ee8128d8e2fa3ad341faf19a9d383166b0020014e2c7600180540385858585604051808681526020018060200185815260200180602001848152602001838103835287818151815260200191508051906020019080838360005b83811015610cee578082015181840152602081019050610cd3565b50505050905090810190601f168015610d1b5780820380516001836020036101000a031916815260200191505b50838103825285818151815260200191508051906020019080838360005b83811015610d54578082015181840152602081019050610d39565b50505050905090810190601f168015610d815780820380516001836020036101000a031916815260200191505b5097505050505050505060405180910390a150505050565b3373ffffffffffffffffffffffffffffffffffffffff16600260009054906101000a900473ffffffffffffffffffffffffffffffffffffffff1673ffffffffffffffffffffffffffffffffffffffff1614610df357600080fd5b836000808781526020019081526020016000206000019080519060200190610e1c9291906110f2565b508260008087815260200190815260200160002060010181905550816000808781526020019081526020016000206002019080519060200190610e609291906110f2565b5080600080878152602001908152602001600020600301819055507f24db30be9e692b2c726dab20f0d479c059f97741f8b37d501efd0044c095465c8585858585604051808681526020018060200185815260200180602001848152602001838103835287818151815260200191508051906020019080838360005b83811015610ef7578082015181840152602081019050610edc565b50505050905090810190601f168015610f245780820380516001836020036101000a031916815260200191505b50838103825285818151815260200191508051906020019080838360005b83811015610f5d578082015181840152602081019050610f42565b50505050905090810190601f168015610f8a5780820380516001836020036101000a031916815260200191505b5097505050505050505060405180910390a15050505050565b828054600181600116156101000203166002900490600052602060002090601f016020900481019282601f10610fdc5780548555611019565b8280016001018555821561101957600052602060002091601f016020900482015b82811115611018578254825591600101919060010190610ffd565b5b5090506110269190611172565b5090565b50805460018160011615610100020316600290046000825580601f10611050575061106f565b601f01602090049060005260206000209081019061106e9190611172565b5b50565b828054600181600116156101000203166002900490600052602060002090601f016020900481019282601f106110b357805160ff19168380011785556110e1565b828001600101855582156110e1579182015b828111156110e05782518255916020019190600101906110c5565b5b5090506110ee9190611172565b5090565b828054600181600116156101000203166002900490600052602060002090601f016020900481019282601f1061113357805160ff1916838001178555611161565b82800160010185558215611161579182015b82811115611160578251825591602001919060010190611145565b5b50905061116e9190611172565b5090565b61119491905b80821115611190576000816000905550600101611178565b5090565b9056fea265627a7a7231582096f4c4d5415a3cd5b4bfce53897b0ff8a27d73cf61dac50b02bf63f1e0ed3b3164736f6c63430005100032",
  "source": "pragma solidity >=0.5.0;\n\ncontract EmployeeContract {\n  event NewEmployee(uint id, string name, int age, string role, int salary);\n  event UpdatedEmployee(uint id, string name, int age, string role, int salary);\n  event DeleteEmployee(uint id);\n\n  struct Employee {\n    string name;\n    int age;\n    string role;\n    int salary;\n  }\n\n  mapping (uint => Employee) public employees;\n  uint employeesLength;\n  address manager;\n  \n  mapping (uint => address) public employeeToOwner;\n  mapping (address => uint) public ownerToEmployee;\n    constructor() public{\n         employeesLength = 0;\n         manager = 0x59BDe5BBA8549503D88EBE11FE47b39989Dda3a9;\n    }\n    \n    modifier onlyOwner() {\n        require(manager == msg.sender);\n        _;\n    }\n  function createEmployee(string memory name, int age, string memory role, int salary) onlyOwner public {\n    employees[employeesLength]  = Employee(name, age, role, salary);\n    employeesLength++;\n    \n    emit NewEmployee(employeesLength - 1 , name, age, role, salary);\n  }\n\n  function getEmployee(uint id) public view returns (string memory, int, string memory, int) {\n    return (employees[id].name, employees[id].age, employees[id].role, employees[id].salary);\n  }\n\n  function updateEmployeeName(uint id, string memory name, int age, string memory role, int salary) onlyOwner public {\n    employees[id].name = name;\n    employees[id].age =  age;\n    employees[id].role =  role;\n    employees[id].salary =  salary;\n    emit UpdatedEmployee(id, name, age, role, salary);\n  }\n\n  function deleteEmployee(uint id) onlyOwner public {\n       for (uint j = id; j < employeesLength - 1; j++){\n                employees[j] = employees[j+1];\n            }\n      delete employees[employeesLength-1];\n      employeesLength--;\n      emit DeleteEmployee(id);\n  }\n}",
  "sourcePath": "/Users/jonathanalmelaguerrero/dapp/contracts/Employee.sol",
  "compiler": {
    "name": "solc",
    "version": "0.5.16+commit.9c3226ce.Emscripten.clang"
  },
  "schemaVersion": "3.3.4",
  "updatedAt": "2021-03-24T14:40:30.238Z",
  "networkType": "ethereum",
  "devdoc": {
    "methods": {}
  },
  "userdoc": {
    "methods": {}
  }
}