{
  "contractName": "EmployeeRegistry",
  "abi": [
    {
      "anonymous": false,
      "inputs": [
        {
          "indexed": false,
          "internalType": "uint256",
          "name": "id",
          "type": "uint256"
        },
        {
          "indexed": false,
          "internalType": "address",
          "name": "owner",
          "type": "address"
        },
        {
          "indexed": false,
          "internalType": "string",
          "name": "name",
          "type": "string"
        },
        {
          "indexed": false,
          "internalType": "int256",
          "name": "age",
          "type": "int256"
        },
        {
          "indexed": false,
          "internalType": "string",
          "name": "role",
          "type": "string"
        },
        {
          "indexed": false,
          "internalType": "int256",
          "name": "salary",
          "type": "int256"
        }
      ],
      "name": "NewEmployee",
      "type": "event"
    },
    {
      "anonymous": false,
      "inputs": [
        {
          "indexed": false,
          "internalType": "uint256",
          "name": "id",
          "type": "uint256"
        },
        {
          "indexed": false,
          "internalType": "address",
          "name": "owner",
          "type": "address"
        },
        {
          "indexed": false,
          "internalType": "string",
          "name": "name",
          "type": "string"
        },
        {
          "indexed": false,
          "internalType": "int256",
          "name": "age",
          "type": "int256"
        },
        {
          "indexed": false,
          "internalType": "string",
          "name": "role",
          "type": "string"
        },
        {
          "indexed": false,
          "internalType": "int256",
          "name": "salary",
          "type": "int256"
        }
      ],
      "name": "UpdatedEmployee",
      "type": "event"
    },
    {
      "constant": true,
      "inputs": [
        {
          "internalType": "uint256",
          "name": "",
          "type": "uint256"
        }
      ],
      "name": "employeeToOwner",
      "outputs": [
        {
          "internalType": "address",
          "name": "",
          "type": "address"
        }
      ],
      "payable": false,
      "stateMutability": "view",
      "type": "function"
    },
    {
      "constant": true,
      "inputs": [
        {
          "internalType": "uint256",
          "name": "",
          "type": "uint256"
        }
      ],
      "name": "employees",
      "outputs": [
        {
          "internalType": "address",
          "name": "owner",
          "type": "address"
        },
        {
          "internalType": "string",
          "name": "name",
          "type": "string"
        },
        {
          "internalType": "int256",
          "name": "age",
          "type": "int256"
        },
        {
          "internalType": "string",
          "name": "role",
          "type": "string"
        },
        {
          "internalType": "int256",
          "name": "salary",
          "type": "int256"
        }
      ],
      "payable": false,
      "stateMutability": "view",
      "type": "function"
    },
    {
      "constant": true,
      "inputs": [
        {
          "internalType": "address",
          "name": "",
          "type": "address"
        }
      ],
      "name": "ownerToEmployee",
      "outputs": [
        {
          "internalType": "uint256",
          "name": "",
          "type": "uint256"
        }
      ],
      "payable": false,
      "stateMutability": "view",
      "type": "function"
    },
    {
      "constant": false,
      "inputs": [
        {
          "internalType": "string",
          "name": "name",
          "type": "string"
        },
        {
          "internalType": "int256",
          "name": "age",
          "type": "int256"
        },
        {
          "internalType": "string",
          "name": "role",
          "type": "string"
        },
        {
          "internalType": "int256",
          "name": "salary",
          "type": "int256"
        }
      ],
      "name": "createEmployee",
      "outputs": [],
      "payable": false,
      "stateMutability": "nonpayable",
      "type": "function"
    },
    {
      "constant": true,
      "inputs": [
        {
          "internalType": "address",
          "name": "owner",
          "type": "address"
        }
      ],
      "name": "getEmployee",
      "outputs": [
        {
          "internalType": "string",
          "name": "",
          "type": "string"
        },
        {
          "internalType": "int256",
          "name": "",
          "type": "int256"
        },
        {
          "internalType": "string",
          "name": "",
          "type": "string"
        },
        {
          "internalType": "int256",
          "name": "",
          "type": "int256"
        }
      ],
      "payable": false,
      "stateMutability": "view",
      "type": "function"
    },
    {
      "constant": false,
      "inputs": [
        {
          "internalType": "string",
          "name": "name",
          "type": "string"
        }
      ],
      "name": "updateEmployeeName",
      "outputs": [],
      "payable": false,
      "stateMutability": "nonpayable",
      "type": "function"
    },
    {
      "constant": false,
      "inputs": [
        {
          "internalType": "string",
          "name": "role",
          "type": "string"
        }
      ],
      "name": "updateEmployeeRole",
      "outputs": [],
      "payable": false,
      "stateMutability": "nonpayable",
      "type": "function"
    },
    {
      "constant": false,
      "inputs": [
        {
          "internalType": "int256",
          "name": "age",
          "type": "int256"
        }
      ],
      "name": "updateEmployeeAge",
      "outputs": [],
      "payable": false,
      "stateMutability": "nonpayable",
      "type": "function"
    },
    {
      "constant": false,
      "inputs": [
        {
          "internalType": "int256",
          "name": "salary",
          "type": "int256"
        }
      ],
      "name": "updateEmployeeSalary",
      "outputs": [],
      "payable": false,
      "stateMutability": "nonpayable",
      "type": "function"
    },
    {
      "constant": false,
      "inputs": [],
      "name": "setMythicalEmployee",
      "outputs": [],
      "payable": false,
      "stateMutability": "nonpayable",
      "type": "function"
    },
    {
      "constant": false,
      "inputs": [],
      "name": "prueba",
      "outputs": [],
      "payable": false,
      "stateMutability": "nonpayable",
      "type": "function"
    }
  ],
  "bytecode": "0x608060405234801561001057600080fd5b50611ed4806100206000396000f3fe608060405234801561001057600080fd5b50600436106100a95760003560e01c8063543f5d9d11610071578063543f5d9d146104095780636716635d146104c45780637cb5946d146104f2578063a5a4bd70146104fc578063be840e4c146105b7578063c974c8a41461071d576100a9565b8063212aa5f2146100ae578063277ca287146100b857806332648e0914610126578063408445f61461025d5780634739326b146102b5575b600080fd5b6100b661074b565b005b6100e4600480360360208110156100ce57600080fd5b8101908080359060200190929190505050610908565b604051808273ffffffffffffffffffffffffffffffffffffffff1673ffffffffffffffffffffffffffffffffffffffff16815260200191505060405180910390f35b6101686004803603602081101561013c57600080fd5b81019080803573ffffffffffffffffffffffffffffffffffffffff16906020019092919050505061093b565b604051808060200185815260200180602001848152602001838103835287818151815260200191508051906020019080838360005b838110156101b857808201518184015260208101905061019d565b50505050905090810190601f1680156101e55780820380516001836020036101000a031916815260200191505b50838103825285818151815260200191508051906020019080838360005b8381101561021e578082015181840152602081019050610203565b50505050905090810190601f16801561024b5780820380516001836020036101000a031916815260200191505b50965050505050505060405180910390f35b61029f6004803603602081101561027357600080fd5b81019080803573ffffffffffffffffffffffffffffffffffffffff169060200190929190505050610b48565b6040518082815260200191505060405180910390f35b6102e1600480360360208110156102cb57600080fd5b8101908080359060200190929190505050610b60565b604051808673ffffffffffffffffffffffffffffffffffffffff1673ffffffffffffffffffffffffffffffffffffffff1681526020018060200185815260200180602001848152602001838103835287818151815260200191508051906020019080838360005b83811015610363578082015181840152602081019050610348565b50505050905090810190601f1680156103905780820380516001836020036101000a031916815260200191505b50838103825285818151815260200191508051906020019080838360005b838110156103c95780820151818401526020810190506103ae565b50505050905090810190601f1680156103f65780820380516001836020036101000a031916815260200191505b5097505050505050505060405180910390f35b6104c26004803603602081101561041f57600080fd5b810190808035906020019064010000000081111561043c57600080fd5b82018360208201111561044e57600080fd5b8035906020019184600183028401116401000000008311171561047057600080fd5b91908080601f016020809104026020016040519081016040528093929190818152602001838380828437600081840152601f19601f820116905080830192505050505050509192919290505050610cf3565b005b6104f0600480360360208110156104da57600080fd5b810190808035906020019092919050505061103b565b005b6104fa61138f565b005b6105b56004803603602081101561051257600080fd5b810190808035906020019064010000000081111561052f57600080fd5b82018360208201111561054157600080fd5b8035906020019184600183028401116401000000008311171561056357600080fd5b91908080601f016020809104026020016040519081016040528093929190818152602001838380828437600081840152601f19601f820116905080830192505050505050509192919290505050611391565b005b61071b600480360360808110156105cd57600080fd5b81019080803590602001906401000000008111156105ea57600080fd5b8201836020820111156105fc57600080fd5b8035906020019184600183028401116401000000008311171561061e57600080fd5b91908080601f016020809104026020016040519081016040528093929190818152602001838380828437600081840152601f19601f820116905080830192505050505050509192919290803590602001909291908035906020019064010000000081111561068b57600080fd5b82018360208201111561069d57600080fd5b803590602001918460018302840111640100000000831117156106bf57600080fd5b91908080601f016020809104026020016040519081016040528093929190818152602001838380828437600081840152601f19601f820116905080830192505050505050509192919290803590602001909291905050506116d9565b005b6107496004803603602081101561073357600080fd5b8101908080359060200190929190505050611a26565b005b738d3e809fbd258083a5ba004a527159da535c8aba73ffffffffffffffffffffffffffffffffffffffff163373ffffffffffffffffffffffffffffffffffffffff161461079757600080fd5b60006040518060a00160405280600073ffffffffffffffffffffffffffffffffffffffff1681526020016040518060400160405280600181526020017f20000000000000000000000000000000000000000000000000000000000000008152508152602001600081526020016040518060400160405280600181526020017f2000000000000000000000000000000000000000000000000000000000000000815250815260200160008152509080600181540180825580915050906001820390600052602060002090600502016000909192909190915060008201518160000160006101000a81548173ffffffffffffffffffffffffffffffffffffffff021916908373ffffffffffffffffffffffffffffffffffffffff16021790555060208201518160010190805190602001906108d1929190611d7a565b506040820151816002015560608201518160030190805190602001906108f8929190611d7a565b5060808201518160040155505050565b60016020528060005260406000206000915054906101000a900473ffffffffffffffffffffffffffffffffffffffff1681565b606060006060600080600260008773ffffffffffffffffffffffffffffffffffffffff1673ffffffffffffffffffffffffffffffffffffffff1681526020019081526020016000205490506000818154811061099357fe5b9060005260206000209060050201600101600082815481106109b157fe5b906000526020600020906005020160020154600083815481106109d057fe5b9060005260206000209060050201600301600084815481106109ee57fe5b906000526020600020906005020160040154838054600181600116156101000203166002900480601f016020809104026020016040519081016040528092919081815260200182805460018160011615610100020316600290048015610a955780601f10610a6a57610100808354040283529160200191610a95565b820191906000526020600020905b815481529060010190602001808311610a7857829003601f168201915b50505050509350818054600181600116156101000203166002900480601f016020809104026020016040519081016040528092919081815260200182805460018160011615610100020316600290048015610b315780601f10610b0657610100808354040283529160200191610b31565b820191906000526020600020905b815481529060010190602001808311610b1457829003601f168201915b505050505091509450945094509450509193509193565b60026020528060005260406000206000915090505481565b60008181548110610b6d57fe5b90600052602060002090600502016000915090508060000160009054906101000a900473ffffffffffffffffffffffffffffffffffffffff1690806001018054600181600116156101000203166002900480601f016020809104026020016040519081016040528092919081815260200182805460018160011615610100020316600290048015610c3f5780601f10610c1457610100808354040283529160200191610c3f565b820191906000526020600020905b815481529060010190602001808311610c2257829003601f168201915b505050505090806002015490806003018054600181600116156101000203166002900480601f016020809104026020016040519081016040528092919081815260200182805460018160011615610100020316600290048015610ce35780601f10610cb857610100808354040283529160200191610ce3565b820191906000526020600020905b815481529060010190602001808311610cc657829003601f168201915b5050505050908060040154905085565b6000600260003373ffffffffffffffffffffffffffffffffffffffff1673ffffffffffffffffffffffffffffffffffffffff168152602001908152602001600020541415610d4057600080fd5b6000600260003373ffffffffffffffffffffffffffffffffffffffff1673ffffffffffffffffffffffffffffffffffffffff1681526020019081526020016000205481548110610d8c57fe5b906000526020600020906005020160000160009054906101000a900473ffffffffffffffffffffffffffffffffffffffff1673ffffffffffffffffffffffffffffffffffffffff163373ffffffffffffffffffffffffffffffffffffffff1614610df557600080fd5b6000600260003373ffffffffffffffffffffffffffffffffffffffff1673ffffffffffffffffffffffffffffffffffffffff1681526020019081526020016000205490508160008281548110610e4757fe5b90600052602060002090600502016001019080519060200190610e6b929190611dfa565b507f5d1e12aaf7d138e0bb887979e9554c71e1e8aed98ef18874884668d11d392aaf81338460008581548110610e9d57fe5b90600052602060002090600502016002015460008681548110610ebc57fe5b906000526020600020906005020160030160008781548110610eda57fe5b906000526020600020906005020160040154604051808781526020018673ffffffffffffffffffffffffffffffffffffffff1673ffffffffffffffffffffffffffffffffffffffff1681526020018060200185815260200180602001848152602001838103835287818151815260200191508051906020019080838360005b83811015610f74578082015181840152602081019050610f59565b50505050905090810190601f168015610fa15780820380516001836020036101000a031916815260200191505b508381038252858181546001816001161561010002031660029004815260200191508054600181600116156101000203166002900480156110235780601f10610ff857610100808354040283529160200191611023565b820191906000526020600020905b81548152906001019060200180831161100657829003601f168201915b50509850505050505050505060405180910390a15050565b6000600260003373ffffffffffffffffffffffffffffffffffffffff1673ffffffffffffffffffffffffffffffffffffffff16815260200190815260200160002054141561108857600080fd5b6000600260003373ffffffffffffffffffffffffffffffffffffffff1673ffffffffffffffffffffffffffffffffffffffff16815260200190815260200160002054815481106110d457fe5b906000526020600020906005020160000160009054906101000a900473ffffffffffffffffffffffffffffffffffffffff1673ffffffffffffffffffffffffffffffffffffffff163373ffffffffffffffffffffffffffffffffffffffff161461113d57600080fd5b6000600260003373ffffffffffffffffffffffffffffffffffffffff1673ffffffffffffffffffffffffffffffffffffffff168152602001908152602001600020549050816000828154811061118f57fe5b9060005260206000209060050201600201819055507f5d1e12aaf7d138e0bb887979e9554c71e1e8aed98ef18874884668d11d392aaf8133600084815481106111d457fe5b906000526020600020906005020160010185600086815481106111f357fe5b90600052602060002090600502016003016000878154811061121157fe5b906000526020600020906005020160040154604051808781526020018673ffffffffffffffffffffffffffffffffffffffff1673ffffffffffffffffffffffffffffffffffffffff16815260200180602001858152602001806020018481526020018381038352878181546001816001161561010002031660029004815260200191508054600181600116156101000203166002900480156112f45780601f106112c9576101008083540402835291602001916112f4565b820191906000526020600020905b8154815290600101906020018083116112d757829003601f168201915b50508381038252858181546001816001161561010002031660029004815260200191508054600181600116156101000203166002900480156113775780601f1061134c57610100808354040283529160200191611377565b820191906000526020600020905b81548152906001019060200180831161135a57829003601f168201915b50509850505050505050505060405180910390a15050565b565b6000600260003373ffffffffffffffffffffffffffffffffffffffff1673ffffffffffffffffffffffffffffffffffffffff1681526020019081526020016000205414156113de57600080fd5b6000600260003373ffffffffffffffffffffffffffffffffffffffff1673ffffffffffffffffffffffffffffffffffffffff168152602001908152602001600020548154811061142a57fe5b906000526020600020906005020160000160009054906101000a900473ffffffffffffffffffffffffffffffffffffffff1673ffffffffffffffffffffffffffffffffffffffff163373ffffffffffffffffffffffffffffffffffffffff161461149357600080fd5b6000600260003373ffffffffffffffffffffffffffffffffffffffff1673ffffffffffffffffffffffffffffffffffffffff16815260200190815260200160002054905081600082815481106114e557fe5b90600052602060002090600502016003019080519060200190611509929190611dfa565b507f5d1e12aaf7d138e0bb887979e9554c71e1e8aed98ef18874884668d11d392aaf81336000848154811061153a57fe5b90600052602060002090600502016001016000858154811061155857fe5b906000526020600020906005020160020154866000878154811061157857fe5b906000526020600020906005020160040154604051808781526020018673ffffffffffffffffffffffffffffffffffffffff1673ffffffffffffffffffffffffffffffffffffffff168152602001806020018581526020018060200184815260200183810383528781815460018160011615610100020316600290048152602001915080546001816001161561010002031660029004801561165b5780601f106116305761010080835404028352916020019161165b565b820191906000526020600020905b81548152906001019060200180831161163e57829003601f168201915b5050838103825285818151815260200191508051906020019080838360005b8381101561169557808201518184015260208101905061167a565b50505050905090810190601f1680156116c25780820380516001836020036101000a031916815260200191505b509850505050505050505060405180910390a15050565b6000600260003373ffffffffffffffffffffffffffffffffffffffff1673ffffffffffffffffffffffffffffffffffffffff168152602001908152602001600020541461172557600080fd5b60006040518060a001604052803373ffffffffffffffffffffffffffffffffffffffff168152602001868152602001858152602001848152602001838152509080600181540180825580915050906001820390600052602060002090600502016000909192909190915060008201518160000160006101000a81548173ffffffffffffffffffffffffffffffffffffffff021916908373ffffffffffffffffffffffffffffffffffffffff16021790555060208201518160010190805190602001906117f2929190611d7a565b50604082015181600201556060820151816003019080519060200190611819929190611d7a565b506080820151816004015550505060006001600080549050039050336001600083815260200190815260200160002060006101000a81548173ffffffffffffffffffffffffffffffffffffffff021916908373ffffffffffffffffffffffffffffffffffffffff16021790555080600260003373ffffffffffffffffffffffffffffffffffffffff1673ffffffffffffffffffffffffffffffffffffffff168152602001908152602001600020819055507f65dd14a5e5e82db93e34986c74b2c92b488059f3682462f29a6c9f33179e68a0813387878787604051808781526020018673ffffffffffffffffffffffffffffffffffffffff1673ffffffffffffffffffffffffffffffffffffffff1681526020018060200185815260200180602001848152602001838103835287818151815260200191508051906020019080838360005b8381101561197957808201518184015260208101905061195e565b50505050905090810190601f1680156119a65780820380516001836020036101000a031916815260200191505b50838103825285818151815260200191508051906020019080838360005b838110156119df5780820151818401526020810190506119c4565b50505050905090810190601f168015611a0c5780820380516001836020036101000a031916815260200191505b509850505050505050505060405180910390a15050505050565b6000600260003373ffffffffffffffffffffffffffffffffffffffff1673ffffffffffffffffffffffffffffffffffffffff168152602001908152602001600020541415611a7357600080fd5b6000600260003373ffffffffffffffffffffffffffffffffffffffff1673ffffffffffffffffffffffffffffffffffffffff1681526020019081526020016000205481548110611abf57fe5b906000526020600020906005020160000160009054906101000a900473ffffffffffffffffffffffffffffffffffffffff1673ffffffffffffffffffffffffffffffffffffffff163373ffffffffffffffffffffffffffffffffffffffff1614611b2857600080fd5b6000600260003373ffffffffffffffffffffffffffffffffffffffff1673ffffffffffffffffffffffffffffffffffffffff1681526020019081526020016000205490508160008281548110611b7a57fe5b9060005260206000209060050201600401819055507f5d1e12aaf7d138e0bb887979e9554c71e1e8aed98ef18874884668d11d392aaf813360008481548110611bbf57fe5b906000526020600020906005020160010160008581548110611bdd57fe5b90600052602060002090600502016002015460008681548110611bfc57fe5b906000526020600020906005020160030187604051808781526020018673ffffffffffffffffffffffffffffffffffffffff1673ffffffffffffffffffffffffffffffffffffffff1681526020018060200185815260200180602001848152602001838103835287818154600181600116156101000203166002900481526020019150805460018160011615610100020316600290048015611cdf5780601f10611cb457610100808354040283529160200191611cdf565b820191906000526020600020905b815481529060010190602001808311611cc257829003601f168201915b5050838103825285818154600181600116156101000203166002900481526020019150805460018160011615610100020316600290048015611d625780601f10611d3757610100808354040283529160200191611d62565b820191906000526020600020905b815481529060010190602001808311611d4557829003601f168201915b50509850505050505050505060405180910390a15050565b828054600181600116156101000203166002900490600052602060002090601f016020900481019282601f10611dbb57805160ff1916838001178555611de9565b82800160010185558215611de9579182015b82811115611de8578251825591602001919060010190611dcd565b5b509050611df69190611e7a565b5090565b828054600181600116156101000203166002900490600052602060002090601f016020900481019282601f10611e3b57805160ff1916838001178555611e69565b82800160010185558215611e69579182015b82811115611e68578251825591602001919060010190611e4d565b5b509050611e769190611e7a565b5090565b611e9c91905b80821115611e98576000816000905550600101611e80565b5090565b9056fea265627a7a7231582086547a938b7b1051e2345874f2bb25807b3f8e79a584360246075753f916771764736f6c63430005100032",
  "source": "pragma solidity >=0.5.0;\n\ncontract EmployeeRegistry {\n  event NewEmployee(uint id, address owner, string name, int age, string role, int salary);\n  event UpdatedEmployee(uint id, address owner, string name, int age, string role, int salary);\n\n  struct Employee {\n    address owner;\n    string name;\n    int age;\n    string role;\n    int salary;\n    \n  }\n\n  Employee[] public employees;\n \n  \n  mapping (uint => address) public employeeToOwner;\n  mapping (address => uint) public ownerToEmployee;\n\n  function createEmployee(string memory name, int age, string memory role, int salary) public {\n    require(ownerToEmployee[msg.sender] == 0);\n    employees.push(Employee(msg.sender, name, age, role, salary));\n    uint id = employees.length-1;\n    employeeToOwner[id] = msg.sender;\n    ownerToEmployee[msg.sender] = id;\n    \n    emit NewEmployee(id, msg.sender, name, age, role, salary);\n  }\n\n  function getEmployee(address owner) public view returns (string memory, int, string memory, int) {\n    uint id = ownerToEmployee[owner];\n    return (employees[id].name, employees[id].age, employees[id].role, employees[id].salary);\n  }\n\n  function updateEmployeeName(string memory name) public {\n    require(ownerToEmployee[msg.sender] != 0);\n    require(msg.sender == employees[ownerToEmployee[msg.sender]].owner);\n\n    uint id = ownerToEmployee[msg.sender];\n\n    employees[id].name = name;\n    emit UpdatedEmployee(id, msg.sender, name, employees[id].age, employees[id].role, employees[id].salary);\n  }\n\n  function updateEmployeeRole(string memory role) public {\n    require(ownerToEmployee[msg.sender] != 0);\n    require(msg.sender == employees[ownerToEmployee[msg.sender]].owner);\n\n    uint id = ownerToEmployee[msg.sender];\n\n    employees[id].role =  role;\n    emit UpdatedEmployee(id, msg.sender, employees[id].name,employees[id].age, role, employees[id].salary);\n  }\n  function updateEmployeeAge(int age) public {\n    require(ownerToEmployee[msg.sender] != 0);\n    require(msg.sender == employees[ownerToEmployee[msg.sender]].owner);\n\n    uint id = ownerToEmployee[msg.sender];\n\n    employees[id].age =  age;\n    emit UpdatedEmployee(id, msg.sender, employees[id].name,age, employees[id].role, employees[id].salary);\n  }\n  function updateEmployeeSalary(int salary) public {\n    require(ownerToEmployee[msg.sender] != 0);\n    require(msg.sender == employees[ownerToEmployee[msg.sender]].owner);\n\n    uint id = ownerToEmployee[msg.sender];\n\n    employees[id].salary =  salary;\n    emit UpdatedEmployee(id, msg.sender, employees[id].name,employees[id].age, employees[id].role, salary);\n  }\n\n  // the gravatar at position 0 of gravatars[]\n  // is fake\n  // it's a mythical gravatar\n  // that doesn't really exist\n  // dani will invoke this function once when this contract is deployed\n  // but then no more\n  function setMythicalEmployee() public {\n    require(msg.sender == 0x8d3e809Fbd258083a5Ba004a527159Da535c8abA);\n    \n    employees.push(Employee(0x0000000000000000000000000000000000000000, \" \",0, \" \",0));\n  }\n  function prueba() public{}\n}",
  "sourcePath": "/Users/jonathanalmelaguerrero/truffle-dapp/contracts/Employee.sol",
  "compiler": {
    "name": "solc",
    "version": "0.5.16+commit.9c3226ce.Emscripten.clang"
  },
  "schemaVersion": "3.3.4",
  "updatedAt": "2021-03-18T12:50:53.686Z",
  "devdoc": {
    "methods": {}
  },
  "userdoc": {
    "methods": {}
  }
}